:020000040800F2
:10000000700A002085290008CD270008CF270008A6
:10001000D1270008D3270008D527000800000000DA
:10002000000000000000000000000000D7270008CA
:10003000D927000800000000DB270008DD270008A2
:10004000B9290008BD290008C1290008C5290008F0
:10005000C9290008CD290008D1290008D5290008A0
:10006000D9290008DD290008E1290008E529000850
:10007000E9290008ED290008F1290008F529000800
:10008000F9290008FD290008012A0008052A0008AE
:10009000092A00080D2A0008112A0008E127000893
:1000A000152A0008192A00081D2A0008212A00081C
:1000B000252A0008292A00082D2A0008312A0008CC
:1000C000352A0008392A00083D2A0008412A00087C
:1000D000452A0008492A00084D2A0008512A00082C
:1000E00001280008552A0008592A00085D2A00083E
:1000F000612A0008652A0008692A00086D2A00089C
:10010000712A0008752A0008792A00087D2A00084B
:10011000812A0008852A0008892A00088D2A0008FB
:10012000912A0008952A0008992A00089D2A0008AB
:10013000A12A0008A52A0008A92A0008AD2A00085B
:10014000B12A0008B52A0008B92A0008BD2A00080B
:10015000C12A0008C52A0008C92A0008CD2A0008BB
:10016000D12A0008D52A0008D92A0008DD2A00086B
:10017000E12A0008E52A0008000000000000000055
:10018000E92A0008ED2A00082DE9FC47040068D0A0
:10019000DFF88466DFF89076B068F56800F00C0848
:1001A0002078C10605F003054BD5B8F1000F04D047
:1001B000B8F10C0F08BF012D2CD13068810702D592
:1001C000A06900284DD0316808074EBF31687968B2
:1001D0000909206A01F0F001814206D200F0E1FA3B
:1001E000002808D100F0E4F907E000F0E1F9206A06
:1001F00000F0D7FA002840F0D68100F075FAB26816
:1002000000F068FADFF81806006800F025FB01002E
:1002100017D0CBE1A069002855D0316841F0010129
:10022000316000F03BFB81463068810707D400F065
:1002300035FBA0EB09000328F6D30320B6E100F05C
:10024000B7F92078C1070ED5B8F1080F04D0B8F17E
:100250000C0F08BF032D47D13068810303D56068B8
:10026000002800F0A0812178880714D5B8F1040F88
:1002700004D0B8F10C0F08BF022D6CD130684105D5
:1002800002D5E0680028ECD07068216920F0F850B1
:1002900040EA016070602078010740F18D8060695C
:1002A0000028786879D040F00100786000F0F6FA14
:1002B00005467868810700F17F8000F0EFFA401B67
:1002C0000328F6D3B9E7306840084000306000F0FA
:1002D000E5FA814630688107B3D500F0DFFAA0EB7C
:1002E00009000328F6D3A8E76068B0F5803F04D181
:1002F000306840F48030306011E0B0F5A02F3068F5
:1003000006D140F480203060316841F4803105E04E
:1003100020F480303060316821F4802131606068E1
:1003200060B100F0BBFA8146306881039BD400F0D5
:10033000B5FAA0EB09006528F6D37EE700F0AEFA27
:100340008146306881038ED500F0A8FAA0EB090041
:100350006528F6D371E7E06878B1316841F48071BF
:10036000316000F09BFA0546306841058CD400F0FE
:1003700095FA401B0328F7D35FE7306820F48070BC
:10038000306000F08BFA05463068410583D500F0F7
:1003900085FA401B0328F7D34FE7400840007860F8
:1003A00000F07CFA05467868810705D500F076FAFA
:1003B000401B0328F7D340E72078410763D5B06D91
:1003C0000025C10009D4B06D40F08050B065012512
:1003D000B06D00F0805000900098DFF85094D9F88C
:1003E0000000C10513D4D9F8000040F48070C9F8AA
:1003F000000000F053FA8246D9F80000C10506D487
:1004000000F04CFAA0EB0A000328F5D315E7A0682A
:10041000012804D1386840F00100386010E0052858
:10042000386806D140F004003860396841F00101B5
:1004300005E0400840003860396821F00401396067
:10044000A06841F2893960B100F028FA8246386824
:10045000810713D400F022FAA0EB0A004845F6D336
:10046000EBE600F01BFA82463868810706D500F0FB
:1004700015FAA0EB0A004845F6D3DEE61DB1B06DD3
:1004800020F08050B065A06A002800F08E80B8F19E
:100490000C0F5AD00228306820F0807030603BD1B9
:1004A00000F0FCF905463068810105D500F0F6F949
:1004B000401B0328F7D3C0E6F068DFF87413E26A44
:1004C0000840216B1043491E40EA0110E26B616B4A
:1004D000520840EA0120216C521E490840EA42506D
:1004E000491E40EA4160A16B090940EA4140F060C1
:1004F000306840F080703060F16841F08071F160E8
:1005000000F0CCF90446306881014ED400F0C6F901
:10051000001B0328F7D390E6316811F0205F03D168
:10052000F06880088000F060F168DFF8080301409F
:10053000F16000F0B3F904463068810135D500F070
:10054000ADF9001B0328F7D377E601282BD0F0681C
:10055000E26A00F00301914201BF00F07001226BDA
:10056000521EB1EB021F1ED1626B00F4FE41B1EBD3
:10057000022F18D1A16B07290CBF0021012100F423
:1005800000328A420FD1E26B520800F4C001521EC1
:10059000B1EB425F07D1216C490800F0C060491EF1
:1005A000B0EB416F01D0012000E00020BDE8F687EC
:1005B000306840F0080030603168206A21F0F001B6
:1005C000014331607168E06921F47F4141EA002113
:1005D000716070472DE9F0410400884658D0DFF87B
:1005E0005862306800F00700404509D23168C908F8
:1005F00048EAC1013160306800F00700404547D14A
:100600002078DFF81452C1072AD56068032802D188
:1006100029688A0108E0022802D129688A0303E0D8
:100620000028296802D18A0702D431E04A052FD573
:10063000A968890840EA8100A86000F02FF9074600
:10064000A868616800F00C00B0EB810F08D000F0E2
:1006500025F9C01B41F289318842F1D3032037E0EC
:100660002078810705D5AA68A06822F0F00202432D
:10067000AA60316801F0070188450BD23068C008D4
:1006800048EAC0003060316801F00701414501D0FF
:1006900001201DE02078410705D5AA68E06822F412
:1006A000E0620243AA602178080706D5A96820699C
:1006B00021F4605141EAC001A96000F015F8AA6870
:1006C00000F008F8BDE8F0415548006800F0C4B8F3
:1006D000BDE8F0815949C2F30312895C4F4A01F029
:1006E0001F01C8401060704770B54B4A554B906869
:1006F000D6680025002110F00C0006F00306524CCD
:1007000003D00C2812D1012E1AD115682E0704D45B
:10071000444D2E68C6F3032502E01568C5F30315A2
:100720004A4E56F8255048B9294624E0042808BF07
:10073000214620D008281ED119461CE00C281AD1C9
:10074000D06800F00300022803D0032808BF1D462C
:1007500000E02546D168D068D268C0F30620454342
:10076000C1F30210C2F34161401C491CB5FBF0F01B
:100770004900B0FBF1F1084670BD2848304A0068D6
:1007800013683349C3F3022206E024482C4A006868
:1007900013682F49C3F3C222895C01F01F01C840CE
:1007A00070477CB52B4E054630680024C10002D549
:1007B00000F07AF80EE0306840F080503060316828
:1007C00001F080510091009800F06EF8316821F03E
:1007D00080513160B0F5007F04D1802D0CD9A12D5E
:1007E00009D304E0802D88BF032405D801D1022459
:1007F00002E0702D00D101240F480168C90844EAC5
:10080000C1010160006800F00700A04201D0012092
:1008100076BD002076BD0000001002400C000020D4
:10082000040000209410024090100240007000402C
:100830008C809DF9FFFFEEFE002002408C2800080E
:100840000810024000127A000024F4009C280008DE
:10085000B02900085810024070B50E4E0446B0682A
:100860000025A0B14FF47A710B4AB1FBF0F110688A
:10087000B0FBF1F000F0A6F848B9102C07D2002226
:1008800021464FF0FF3000F075F8746000E001255C
:10089000284670BD000000200C00002001480068C0
:1008A000704700BF00000020DFF88400006800F4FB
:1008B000C060704710B5DFF87810B0F5007F0868A9
:1008C00000F4C06019D1B0F5007F1FD00868DFF8D0
:1008D0006420DFF8644020F4C06040F4007000F051
:1008E0001FF800E0401E4A69530501D50028F9D1E0
:1008F000486941050AD5032010BDB0F5806F05D0C9
:10090000086820F4C06040F480600860002010BDDA
:10091000DFF82800FFE7016841F48061016070475B
:100920000860322013684343B3FBF4F0401C704767
:10093000007000400C00002040420F000470004096
:100940000901020002D4294881547047284B02F063
:100950000F021A4402F8041C7047264B19684FF620
:10096000FF020002114000F4E060084322490843FE
:100970001860704770B51F4B1C68C4F30223012434
:10098000C3F10705052D2EBF0F2504FA05F56D1ED1
:100990001E1D072E34BF0023DB1E2940994004FA98
:1009A00003F3BDE870405B1E1A401143C8E7010025
:1009B00007D4012200F01F01104B8A40400943F880
:1009C0002020704710B5401EB0F1807F01D3012078
:1009D00010BD0B4C60600F214FF0FF30FFF7B0FFF0
:1009E0000021A16007202060002010BD00E400E08D
:1009F00018ED00E00CED00E00000FA0500E100E079
:100A000010E000E02DE9FC47064600243068DFF8DE
:100A100020740105A04621D5706E70B1B0F5800F2D
:100A200017D0B0F5000F03D0B0F5400F09D013E098
:100A30003A6842F480323A6004E0002100F07CF928
:100A4000044654B9F96F706E21F440010143F9670F
:100A500004E000F06BF9F3E70124A0463068C1041C
:100A600021D5B06EA8B1B0F1807F17D0B0F1007F72
:100A700003D0B0F1407F04D013E0396841F48031F5
:100A800039607CB9F96FB06E21F040710143F967AC
:100A900009E0002100F050F90446F2E700F046F9C1
:100AA000FAE70124A046306881032BD5F86CC10019
:100AB0004FF000090AD4F86C40F08050F8644FF011
:100AC0000109F86C00F0805000900098DFF8345471
:100AD000286840F480702860FFF7E0FE82462868AE
:100AE000C10500F18280FFF7D9FEA0EB0A000328C0
:100AF000F5D30324A046B9F1000F03D0F86C20F021
:100B00008050F8643078C10705D5FA6FB06B920851
:100B100040EA8202FA673178880705D5F96FF06BF1
:100B200021F00C010143F9673178480705D5F96FC9
:100B3000306C21F030010143F9673178080705D5A1
:100B4000F96F706C21F0C0010143F9673178C80674
:100B500005D5F96FB06C21F440710143F967317824
:100B6000880605D5F96FF06C21F440610143F967FF
:100B70003168880505D5F96FF06D21F440210143F6
:100B8000F9673168480505D5F96F306E21F44011D9
:100B90000143F9673178480605D5F96F306D21F4C6
:100BA00040510143F9673178080605D5F96F706D3A
:100BB00021F440410143F9673168C80505D5F96F53
:100BC000B06D21F440310143F9673168880446D59E
:100BD000F96FF06E21F040610143F967F06EB0F1FA
:100BE000006F34D100F09DF839E0002C82D1DFF89D
:100BF0005043206810F440701CBFD6F8841088421F
:100C00000BD02068216841F48031216020F44070CD
:100C1000226822F4803222602060C0070FD5FFF7DF
:100C20003DFE05462068810709D4FFF737FE401BCB
:100C300041F289318842F5D34FF003085BE7216820
:100C4000D6F8840021F440710143216053E7B0F1EC
:100C5000806F04D100F06FF8010018BF8046306843
:100C6000010314D5FA6F306F22F040620243FA6735
:100C7000306FB0F1006F02D100F053F807E0B0F12F
:100C8000806F04D100F057F8010018BF804630682B
:100C9000410314D5FA6F706F22F040620243FA6785
:100CA000706FB0F1006F02D100F03BF807E0B0F1D7
:100CB000806F04D100F03FF8010018BF8046306813
:100CC000410418D5FA6FB06F22F040520243FA6720
:100CD000B06FB0F1805F03D1022100F02DF807E082
:100CE000B0F1005F07D1022106F1200000F0A2F868
:100CF000010018BF80463068010405D5FA6FF06F17
:100D000022F080420243FA673168C80306D5F96FC2
:100D1000D6F8800021F000410143F9674046BDE864
:100D2000F687386840F4801038607047002106F17B
:100D3000200000F07FB80121301D05E081480168E6
:100D400041F00401016070472DE9F04105467D4FF7
:100D500028680C46F968002611F0030F0DD0F968D9
:100D600001F00301814231D180B3F8686968C0F3B2
:100D70000210401C88420ED028E0012804D025D360
:100D800003281DD018D321E03A6891071ED5FA68D0
:100D9000696800F0C0F8386820F0806000F0CCF896
:100DA00080463868010113D5FFF778FDA0EB0800F5
:100DB0000328F6D3032637E039684A05E7D405E06F
:100DC00039688A03E3D439684A03E0D401262BE06A
:100DD000A9682CB93A695C48EB6800F095F80FE017
:100DE000012C3A6909D12B69584802405B0842EA54
:100DF00001215B1E41EA435102E06B6900F093F868
:100E00003961386840F0806000F096F80446386830
:100E1000010105D4FFF742FD001B0328F7D3C9E702
:100E20003869A969084338613046BDE8F08100009F
:100E30000C1002402DE9F0410646424F30680C4646
:100E4000F968002511F0030F0DD0F96801F00301D6
:100E5000814231D180B3F8687168C0F30210401C40
:100E600088420ED028E0012804D025D303281DD0C5
:100E700018D321E03A6891071ED5FA68716800F02E
:100E80004AF8386820F0805000F056F880463868FC
:100E9000810013D5FFF702FDA0EB08000328F6D36D
:100EA00003252BE039684A05E7D405E039688A0351
:100EB000E3D439684A03E0D401251FE0B1687A69B8
:100EC000002C04D12048F36800F01EF802E03369DA
:100ED00000F029F87961386840F0805000F02CF873
:100EE00004463868810005D4FFF7D8FC001B0328AE
:100EF000F7D3D5E778697169084378612846BDE87A
:100F0000F081000000700040024042EA01211B090C
:100F100041EA4341704722F073021043491E40EA00
:100F20000110F86070470A4802405B0842EA01215C
:100F30005B1E41EA436170473860FFF7AFBC0000B9
:100F40009010024000100240FF80FDFFFF809FFFD5
:100F5000FF80FFF938B5040009D004F17005696815
:100F600009B900F01EF800F021F8012801D1012094
:100F700032BD606A08B100F02AF800F00AF821F0EA
:100F80002A01FFE7816000F01BF8BDE8324000F065
:100F9000DEB92068416821F4904141602068816891
:100FA000704700202870204600F010BB24216960A3
:100FB00020680268520852000260204600F00AB819
:100FC0002068016841F00101016020467047204619
:100FD00000F05AB92DE9F04104469C482268136894
:100FE000A168034020690B4361690343E0690B4337
:100FF0000343136000265168E06821F44051014327
:1010000051600025A36992498A421CBF206A0343AC
:101010009768904827F430673B4393608E4F8F4B1F
:10102000BA4221D11B6803F00303032B29D8DFE860
:1010300003F0025F50710127E169B1F5004F4FF6EF
:10104000F07840F0D38067B1012F00F0A980022F23
:1010500000F0A980042F00F0AB80082F00F0B180D1
:10106000B7E0FFF78AFBA5E07D4FBA4223D11B68AA
:1010700013F00C035FD0042B3AD0082B29D00C2B93
:1010800048D010278A42D7D1390006D0022F09D084
:10109000042F52D0082F53D0D0E0FFF76EFB00286A
:1010A00000F0CD80626802EB4201884202D3130354
:1010B000834248D2C2E06B4FBA420CD11B6813F096
:1010C000300338D0102B13D0202B02D0302B21D05E
:1010D000D7E70227D6E7644FBA420BD11B6813F05B
:1010E000C00328D0402B03D0802BF2D0C02BEEE7DA
:1010F0000427C7E75D4FBA420ED11B6813F4407353
:1011000019D0B3F5807FF3D0B3F5007FE1D0B3F50C
:10111000407FB6D10827B5E78A42B2D11B6813F4E5
:10112000406308D0B3F5806FE2D0B3F5006FD0D044
:10113000B3F5406FCBE70027A4E7FFF7D5FAAEE79A
:101140004FF40040AEE737B1022F0AD0042F0ED083
:10115000082F16D01BE0FFF710FB00F08FF8794145
:101160000AE0434911EB520045EB050104E0FFF7AB
:10117000BBFA00F083F86941002300F0D7FA064675
:1011800006E0530803F50003B3FBF2F600E0012587
:10119000A6F540703749884250D22268D6604EE0AA
:1011A000FFF7F3FA06E06068334901EB50010CE009
:1011B000FFF79AFA61684A0802EB4002B2FBF1F6C7
:1011C00005E06068410801F58031B1FBF0F6B6B288
:1011D00000E00125A6F1100040452FD208EA0601E3
:1011E000C6F3420001432068C16028E047B1012FE7
:1011F00009D0022F0CD0042F08D0082F0ED015E0F4
:10120000FFF7BBFA04E0FFF7C0FA01E0FFF76CFA62
:10121000616800EB5100B0FBF1F605E06068410841
:1012200001F50041B1FBF0F6B6B200E00125A6F1F0
:101230001000404502D22168CE6000E00125002068
:10124000206660662846BDE8F0810000F369FFEF84
:10125000008000400024F400003801408810024063
:101260000044004000480040004C00400050004056
:10127000000024F400FD0F000048E8016268010E40
:10128000560816EB0020704790F82410CA0706D5C0
:1012900002685368816A23F400330B43536090F86B
:1012A00024108A0706D502685368C16A23F4803384
:1012B0000B43536090F824104A0706D50268536820
:1012C000016B23F480230B43536090F824100A072A
:1012D00006D502685368416B23F400430B43536007
:1012E00090F82410CA0606D502689368816B23F42F
:1012F00080530B43936090F824108A0606D5026849
:101300009368C16B23F400530B43936090F824104F
:101310004A0610D502685368016C23F480130B430E
:101320005360036CB3F5801F05D15368416C23F4FF
:10133000C0030B43536090F824100A0606D50168D9
:101340004A68806C22F4002202434A607047F8B574
:10135000044604F170050020E8606FF07E47FFF757
:101360009DFA0646206801680A0708D500973346AB
:1013700000224FF40011204600F016F860B92068F2
:1013800001684A070AD50097334600224FF48001CE
:10139000204600F009F808B10320F2BD2020686063
:1013A000A86000202870F2BD2DE9F041069C05469A
:1013B0000E4690461F462868C1693140B1420CBFB5
:1013C00001200020404519D114F1010FF3D0FFF79F
:1013D00065FAC01B844201D3002CECD12868016857
:1013E00021F4D071016000F00CF805F170002021AB
:1013F0004160816000210170032000E00020BDE811
:10140000F08128688168490849008160704730B4DC
:10141000002513E050F8042BD30744BFA9F10103C2
:101420009A18091F042942F8045BFAD213468C0764
:1014300044BF15809B1CC90748BF1D7050F8041B92
:101440000029E7D130BC7047DFF8A40281B0816881
:1014500041F001018160816801F001010091009972
:10146000026842F080520260006800F080500090F4
:10147000009801B0704780B586B000F079F8DFF8C9
:1014800074120868A0B9DFF87002416941F08071F8
:101490004161416901F0807100F056F84FF420710C
:1014A00000F059F804910621059101A900F0D8F93E
:1014B00007B000BD10B586B000F059F821688F481C
:1014C00081421ED18C4C216841F0020121604FF411
:1014D0004061206800F002000090122200988848C5
:1014E00001910292012103910322042100F027F8C7
:1014F000E06840F48000E060E06800F48000009064
:10150000009806B010BD10B586B000F030F8216824
:101510007C48814211D17848416841F48071416032
:10152000416801F4807100F00FF84FF47C4100F045
:1015300012F803220A2100F002F806B010BD05914E
:10154000049201A900F08CB900910099026842F060
:10155000100202607047006800F010000090022244
:101560000098694801910292002103917047044656
:101570001422002101A800F080BA10B586B0FFF750
:10158000F6FF2168614881421ED15B48C16841F481
:101590000041C160C16801F40041009100990268F6
:1015A00042F0040202604FF4E051006800F00400D1
:1015B0000090022200985648019102920021039166
:1015C00003220621FFF7BBFF06B010BD10B586B0A1
:1015D000044614220021684600F04FFA20684D4A64
:1015E0004549904215D1486940F4804048614869B6
:1015F00000F48040059005980A6842F002020A60F3
:101600000222096801F002010591C02105983C48B9
:1016100018E0414A904220D1C86840F48020C86058
:10162000C86800F48020059005980A6842F0080216
:101630000A600222096801F0080105914FF4407127
:10164000059836480091019200210291032207215A
:1016500004910392694600F003F906B010BD10B57D
:1016600086B0FFF784FF2168B1F1A04F39D1224C39
:10167000206840F0010020600022216801F0010193
:1016800000914FF40071009801910292039200F0D2
:101690002AF802210291002203924FF4E050032124
:1016A000019004910A22059200F01DF8206840F490
:1016B00080502060216801F4805100910098E16819
:1016C000C8000CD4E16841F08051E16000F028F8D6
:1016D000FFF71EF9E06820F08050E06001E0FFF7BE
:1016E00017F906B010BD01A94FF0904000F0B8B84E
:1016F00058100240680600204C100240005800407C
:1017000000040048001000A000100048003C004009
:10171000000800480038014000480040000C004824
:10172000E06800F08050009000987047D3BBD9B1BA
:10173000B2F5803F5BD2022A1ED98C46B1FBF2F192
:1017400002FB11C31B0443EA1043B3FBF2FC02FB90
:101750001C3380B240EA0343B3FBF2F002FB1032C9
:1017600040EA0C4000237047022A05D98446B0FBAA
:10177000F2F002FB10C270474AB105D100F001023D
:1017800049085FEA3000704700220023704700F0EC
:101790007FB90B000200002100207047F7D3002220
:1017A00000237047904271EB030CF2D370B5B1FA8D
:1017B00081F4B3FA83F52C1BA340C4F1200532FA5F
:1017C00005F63343A2405FF00046E64002E05B08C6
:1017D0005FEA3202841A71EB030524BF20462946D2
:1017E0007641F4D302000B003000002170BD70B5CB
:1017F000B1FA81F4B2FA82F5C4F120046419B4F1AB
:101800002006DAD3B2405FF00044F440002502E045
:1018100052085FEA3303C61A71EB020E24BF30464A
:10182000714664416D41F3D302000B002000290092
:1018300070BD30B40EE00268436802440830DC0733
:1018400044BFA9F10104E31852F8045B43F8045BB8
:10185000091FF9D150F8041B0029ECD130BC7047A6
:101860002DE9F84F4FF0000E794BDFF8E881DFF8F3
:10187000E8914FF00F0A07468C462BE0774DAF42B8
:1018800014BF072506258D40254348F82250C14343
:101890001A68DCF804400A40E50348BF02431A60B6
:1018A0005A68DCF804400A40A50348BF02435A6066
:1018B0009A68DCF804400A40E50248BF02439A6097
:1018C000DA680A40DCF804108C0248BF0243DA6090
:1018D0000EF1010EDCF8001031FA0EF000F0A080DD
:1018E000012202FA0EF212EA0100F1D0DCF8044003
:1018F000022C18BF122C4FEA8E0110D14FEADE04E1
:1019000007EB840401F01C05266A0AFA05FB26EAA7
:101910000B06DCF810B00BFA05F5354325624FEAEB
:101920004E0403253E689CF804B0A540ED430BF03F
:10193000030B2E400BFA04FB4BEA06063E60D24333
:10194000DCF80460012E18BF022E03D0112E18BF40
:10195000122E13D1BE68DCF80CB02E400BFA04FB3B
:101960004BEA0606BE607E68DCF804B0CBF3001BD1
:1019700016400BFA0EFB4BEA06067E60DCF80460AC
:1019800006F0030BBBF1030F09D1D7F82CB0C6F357
:10199000C00602EA0B0206FA0EF63243FA62FA6851
:1019A0001540DCF8082002FA04F42C43FC60DCF853
:1019B0000440E2008CD5D9F8004044F00104C9F895
:1019C00000404FEA9E02D9F8005005F0010500954D
:1019D00001F00C01009C58F822500AFA01F425EAA3
:1019E0000404B7F1904F08BF002518D01C4DAF423A
:1019F00008BF012513D01B4DAF4208BF02250ED0F2
:101A0000194DAF4208BF032509D0184DAF4208BF9A
:101A1000042504D0164DAF427FF430AF052532E7E0
:101A2000BDE8F18F0AB181617047816270474269F8
:101A30000A4201D081627047816170470D4A136884
:101A400003421CBF106000F017B870470000000090
:101A500000040140080001406010024000180048E6
:101A60000004004800080048000C0048001000482E
:101A70000014004814040140704710B50446104695
:101A80000A460146204600F005F8204610BD000039
:101A90007047000062F30F2262F31F42401810F0FB
:101AA000030308D0C91A1FD3DB0748BF00F8012D74
:101AB00028BF20F8022D130030B414461546103903
:101AC00028BF20E93C00FAD8490728BF20E90C00CC
:101AD00048BF40F8042D890028BF20F8022D48BFD8
:101AE00000F8012D30BC7047C91818BF00F8012D4F
:101AF000CB0728BF00F8012D704700002DE9F843FF
:101B000086B000F057FA00F0D3F900F04DFADFF894
:101B10005404DFF854940168DFF85084DFF850640F
:101B2000DFF85074DFF8505441F01001016048F2C2
:101B30000414026802F0100205920599026842F04E
:101B400004020260036803F0040305930599026828
:101B500042F001020260036803F001030593059956
:101B6000026842F002020260036803F00203059378
:101B70000599026842F0080202600022006800F045
:101B8000080005904FF48A7105984846FFF74AFF10
:101B9000002221464FF09040FFF744FF002243F21D
:101BA00014014046FFF73EFF01224CF2200140465F
:101BB000FFF738FF002241F281013046FFF732FF84
:101BC00001224FF400513046FFF72CFF00224FF462
:101BD00010713846FFF726FF012201214846FFF722
:101BE00021FF40F2151100F05BF94846FFF738FE7F
:101BF0006A200090019500210291484600F03AF9D0
:101C00004FF40050DD4900F03DF93F200B2100F07A
:101C100039F900220221029201910320082200904A
:101C2000039000F037F90120019000220292039204
:101C3000009400F030F90022029203920820022161
:101C400000900191012200F025F9102000F00CF91C
:101C500000F021F90221019100220292E0200321EB
:101C600000900391052200F015F9012100F005F91B
:101C7000404600F0FFF8022000F0F6F800F0EBF824
:101C80004FF2340100F00CF900F0E6F84CF6044194
:101C900000F0F3F8304600F0EDF843F2810100F077
:101CA000FFF83046FFF7DCFD4FF4107100F0F8F854
:101CB0003846FFF7D5FD4FF4C07100F0DEF8384626
:101CC00000F0D8F800220292022003210090019037
:101CD0000391052200F0C3F802210191782000222F
:101CE0000321009002920391072200F0B8F812211C
:101CF0000191012202920321039104224FF44074C6
:101D00000492009400F0A7F8002200211720FEF7AB
:101D100031FE1720FEF74BFE002200212820FEF79F
:101D200029FE2820FEF743FE0121954E954831718A
:101D300030604FF48071B1610220042131620022D1
:101D4000F0600121B26032617261F2617262B1626F
:101D5000F2623263304600F03DF906F2A4578A4839
:101D60008A49386000220120F8607960BA603A61DF
:101D70007A61BA61FA613A62384600F0DBF9002113
:101D8000384600F02FFA0021384600F040FA80482B
:101D9000F864FF213965012078650021F865B9658F
:101DA0003966796606F5BE6000F05CFA7948B06382
:101DB0004FF4827100203064B064F0647065F065A7
:101DC000F16307204FF4007170663165082000212F
:101DD000F066B1653166B166746406F1380000F0F2
:101DE000BDFA06F2A4406C49016000220C214FF4B8
:101DF000E13400F025F806F2245068490160002221
:101E00000C2100F01DF8062206F19C004FF0A041C5
:101E10004260022300220160C3608361C2610262EA
:101E2000426282620263C26200F0F0FA4FF48041C3
:101E30004046FFF7FCFD4FF47A7000F055FBF5E7E4
:101E40008260C260026141618261C261026242627B
:101E50004460FFF77FB869464046FFF701BD049232
:101E600069463046FFF7FCBC0B210090019100222F
:101E7000029270476946FFF7F3BC0091019500217B
:101E80000291704700900191002202926946384603
:101E9000FFF7E6BC049269464FF09040FFF7E0BCC4
:101EA000009101220021029103910192694670473D
:101EB00080B5B8B04422002105A8FFF7DEFD00F090
:101EC00073F88822002116A8FFF7D7FD00F020FB49
:101ED0003348016821F018010160142205920121A4
:101EE000602207910B910D92002101220C9110921A
:101EF0001192022128220F9112920721022213919E
:101F00001492159205A8FEF73FF90F200321FFF761
:101F1000ACFF0392049204216846FEF75BFB0122AA
:101F20001792189200211822249126912B91369114
:101F300019924FF08061022231911B921C9207216D
:101F4000184816904FF480121A911D9216A8FEF7A9
:101F500059FD4FF40070FEF7ADFCFEF7EFFE39B00F
:101F600000BD00004C100240001000480004004872
:101F7000000C00480008004800001110000021106B
:101F8000100000202060014000580040EC9C9010A0
:101F9000001000A0003C0040003801400048004014
:101FA0009010024085200100142200216846FFF7AE
:101FB00064BD0000032010B5FEF7CFFC0020FEF743
:101FC0004BFC0024002814BF0124FFF73DFA2046F3
:101FD00010BD000070B5040005D000F067F8291DA1
:101FE00051F8200008B1012070BD2046FFF743FAE8
:101FF0002868401C2860296801291AD1DFF8B81028
:10200000086820F0804008600A68A06802430A60FF
:102010000B6823F47F030B602079012805D10A683F
:10202000E068401E42EA00420A60086840F0004052
:1020300008602068016821F4714101600368266925
:102040006269A16916430E433343036003681B09A9
:102050001B0103600268E369216A0B431A430260B3
:10206000826822F45F0282608168A36A626A5B1EF2
:1020700042EA034211438160416801F00701416077
:102080004168236BE26ADB0043EA022319434160A3
:102090000122016841F08001016084F8342000F0E1
:1020A0000DF8291D41F82040002070BD2068DFF8A0
:1020B000645000F003B800000060014014498842F9
:1020C00022D01549884201D1012070471349884226
:1020D00001D1022070471249884201D10320704784
:1020E0001049884201D1042070470F49884201D12C
:1020F000052070470D49884201D1062070470C49E0
:10210000884201D10720704700207047000000007E
:102110000060014044060020206001404060014012
:102120006060014080600140A0600140C0600140EB
:10213000E060014038B5040001D1012032BD04F156
:102140004005687820B9002129702046FFF7B2F9D0
:1021500000F040F86068216820F070600861206835
:10216000816821F400418160E06821680128A0684D
:102170000CBF40F4004040F404408860E06802284E
:1021800003D120684FF4006141602068416841F04C
:10219000007141F4004141602068C16821F40041B0
:1021A000C16060692169A2690143206841EA022196
:1021B000C160206AE16922680143116020680168FA
:1021C00041F00101016000206860202169702063F6
:1021D000A87032BD24206870206801684908490051
:1021E0000160704730B500F140025378202B0CD1CC
:1021F0001478012C09D000F01DF824F480541C60E0
:1022000003681D682943196020E0022030BD30B505
:1022100000F140025378202B0AD11478012C07D00A
:1022200000F008F824F4706444EA01241C600DE016
:10223000022030BD012313702424547003681D68EC
:102240006D086D001D6003681C68704700680168B8
:1022500041F0010101602020507000211170002028
:1022600030BD0000F8B50446FEF718FB06460CB971
:102270000120F2BD04F138052878012801D102209F
:10228000F2BD01212970687838B9002129702046F3
:10229000FFF739F941F28830A860334620680168B9
:1022A000A26821F47061521E41EA0221016000F02F
:1022B00029F801001ED122681049136866680B4096
:1022C000E16843EA06630B4313600D4923685E68C7
:1022D000276962690E4046EA0746A16916430E4324
:1022E0005E6021680A6842F001020A6000216960AC
:1022F00001226A7000212970F2BD0000EFFFFF008B
:10230000FEF8E0FF0022A868009020212046FFE7A9
:102310002DE9F041069C05460E4690461F4628686A
:10232000816816EA010018BF0120404512D014F15F
:10233000010FF4D0FEF7B2FAC01B844201D3002C87
:10234000EDD1042085F839000120E96B41F001014D
:10235000E96300E00020BDE8F081000070B50400F2
:1023600001D1012070BD0020A06204F15C056878F5
:1023700020B9002129702046FFF7FFF8022068707D
:1023800000F03DF8E168B1F5E06F04D90022B1F545
:10239000706F03D104E04FF4805201D00020A0629E
:1023A000206B30B9B1F5E06F87BF022020630121B7
:1023B00021636368A06821692668034360690B4351
:1023C000A169034301F40071E0690B43216A0343EF
:1023D000A06A0B4303433360A369606A616B1B0C03
:1023E00003F004030343E0680B4303431A432368E9
:1023F0005A600021696001206870002070BD20686B
:10240000016821F0400101607047000070B50400D0
:102410008AB04BD0266804F56F75687820B9002122
:1024200029702046FFF71BF903206870F16BC8057F
:102430005CBF00212161206800F0A3F883B000F0A8
:102440004EF80EBC206800F06BF800282CD12068F4
:10245000002100F09CF800211C2000260AE010FB5F
:1024600001F222443C32012353701170D1800023C9
:1024700000F02EF862689142F1D3002109E010FBD0
:1024800001F2224402F5FE7200231170537000F035
:102490001FF862689142F2D383B000F020F80EBCBE
:1024A000206800F088F818B10220687001200DE063
:1024B00084F8380001216970606A012804BF204651
:1024C00000F064F9206800F03AF900200AB070BD0D
:1024D000491CD6709360D6605361C9B27047211D04
:1024E0006846342200F066B938B50446FEF7D6F9DE
:1024F00014F1010F054602D0044988680419FEF75B
:10250000CDF9401BA042FAD331BD00BF000000202E
:102510000248016841F4807101607047007000401A
:102520000EB418B504460898012817D1A06B20F402
:102530008030A063E168DFF848020140E160E168B3
:1025400021F44011E1600F98012803D1E06840F4C4
:102550008010E060204600F0FEF80FE0E06840F0F8
:102560004000E060204600F0F6F80C990029A16BCD
:102570000CBF41F4803121F48031A16312BC5DF8BD
:1025800010FB81684908490081600020704780B5D0
:10259000C26822F0C0420129C26005D1C16841F081
:1025A0000051C1603220D2E019B9C16841F08041C8
:1025B000F7E7012002BD0EB42DE9F04305460446BD
:1025C00000260021002004EB8102491C0F29C2F8DB
:1025D0000401F8D3DDF84490A06BB9F1000F0BD1E2
:1025E00020F40010A063216841F0400121602068C0
:1025F00040F08000206002E040F40010A06305F588
:10260000606205F50067166003213B683B60204669
:1026100000F08DF81021204600F06DF800B1012681
:10262000204600F077F800B101260020386178617B
:102630002A46F8614FF67F334FF0904C4FF0006E12
:10264000002503E00D600D618B60401C07998842F6
:1026500011D202EB401101F51061D1F80080B8F100
:10266000000FEFD5002806BF02F51068C8F800E09B
:10267000C1F800C0E7E7002003E00D600D618B604A
:10268000401C0799884211D202EB401101F53061DC
:10269000D1F80080B8F1000FEFD5002806BF02F591
:1026A0003068C8F800E0C1F800C0E7E7386920F4F6
:1026B00080703861A5616FF080406061A169DFF8CA
:1026C000C40041F01001A161A1690143A1610D980D
:1026D00018B1A06940F00800A061B9F1010F05D15F
:1026E000A06940F0804040F00400A0613046BDE8A1
:1026F000F0035DF810FB890141F020010161DFF872
:102700008810491E04D002699306FAD4002070474D
:102710000320704710210161DFF86C10491E04D0BE
:102720000269D306FAD4002070470320704700F5F1
:10273000006002681143FFE701600020704780B528
:1027400000F50060416841F0020141600320FFF79D
:10275000CBFE002002BDDFF830201146491E0DD00F
:102760000369002BFAD5016941F001010161521E94
:1027700004D00169CB07FAD40020704703207047CA
:10278000BFFFBDFF00383C80410D0300016800F52C
:102790007D700122002382600370886940F0006030
:1027A0008861486D40F0805040F00300486500208B
:1027B000704700004AB1000011F8013B521E00F8BA
:1027C000013B1CBF11F8013BF8E770477047FEE77B
:1027D000FEE7FEE7FEE770477047704700F028B855
:1027E00080B52020FFF72AF94020FFF727F9802045
:1027F000FFF724F9BDE802404FF48070FFF71EB9DF
:1028000080B54FF48060FFF719F94FF40060FFF7CF
:1028100015F94FF40050FFF711F94FF48040FFF71E
:102820000DF9BDE802404FF40040FFF707B9000082
:1028300002490A68886882180A6070470000002010
:102840000E48016841F47001016000220C490868DB
:1028500040F0010008608A604FF480520B6809481C
:1028600003400B60CA6000200B68074A23F48023F2
:102870000B6088614FF000611160704788ED00E0E7
:1028800000100240FFFFF6EA08ED00E00000000043
:10289000000000000102030406070809A0860100E9
:1028A000400D0300801A060000350C0040420F0066
:1028B00080841E0000093D0000127A000024F4000C
:1028C00000366E010048E801006CDC0210B50749D3
:1028D00079441831064C7C44163404E00A68081D1B
:1028E000114488470146A142F8D110BD2C000000D8
:1028F0004C0000004EF68851CEF20001086840F40A
:1029000070000860BFF34F8FBFF36F8F4FF0007000
:10291000E1EE100A70470000F7EAFFFF5C060000D6
:1029200010000020000000000BEFFFFF100000006F
:1029300064000000000000200000000000F00DF81E
:10294000002801D0FFF7C2FFAFF300800020AFF3F3
:102950000080FFF7D3F800F002F80120704700F084
:1029600001B800000746384600F002F8FBE7000017
:1029700080B5AFF30080024A11001820ABBEFBE720
:10298000260002000148804701480047412800080E
:10299000A529000800000000100000000100000050
:1029A00000093D00AFF30080FFF7A4FFFFF7C6FF6B
:1029B0000000000001020304FFF7FEBFFFF7FEBFA7
:1029C000FFF7FEBFFFF7FEBFFFF7FEBFFFF7FEBF3B
:1029D000FFF7FEBFFFF7FEBFFFF7FEBFFFF7FEBF2B
:1029E000FFF7FEBFFFF7FEBFFFF7FEBFFFF7FEBF1B
:1029F000FFF7FEBFFFF7FEBFFFF7FEBFFFF7FEBF0B
:102A0000FFF7FEBFFFF7FEBFFFF7FEBFFFF7FEBFFA
:102A1000FFF7FEBFFFF7FEBFFFF7FEBFFFF7FEBFEA
:102A2000FFF7FEBFFFF7FEBFFFF7FEBFFFF7FEBFDA
:102A3000FFF7FEBFFFF7FEBFFFF7FEBFFFF7FEBFCA
:102A4000FFF7FEBFFFF7FEBFFFF7FEBFFFF7FEBFBA
:102A5000FFF7FEBFFFF7FEBFFFF7FEBFFFF7FEBFAA
:102A6000FFF7FEBFFFF7FEBFFFF7FEBFFFF7FEBF9A
:102A7000FFF7FEBFFFF7FEBFFFF7FEBFFFF7FEBF8A
:102A8000FFF7FEBFFFF7FEBFFFF7FEBFFFF7FEBF7A
:102A9000FFF7FEBFFFF7FEBFFFF7FEBFFFF7FEBF6A
:102AA000FFF7FEBFFFF7FEBFFFF7FEBFFFF7FEBF5A
:102AB000FFF7FEBFFFF7FEBFFFF7FEBFFFF7FEBF4A
:102AC000FFF7FEBFFFF7FEBFFFF7FEBFFFF7FEBF3A
:102AD000FFF7FEBFFFF7FEBFFFF7FEBFFFF7FEBF2A
:102AE000FFF7FEBFFFF7FEBFFFF7FEBFFFF7FEBF1A
:04000005080029A521
:00000001FF
